:020000040000FA
:1000000060020020ED020000F5020000F70200008F
:10001000F7020000F9020000FB02000000000000EF
:10002000000000000000000000000000FD020000D1
:10003000FF020000000000000103000003030000B5
:100040000503000007030000090300000B03000084
:100050000D0300000F030000110300001303000054
:100060001503000017030000190300001B03000024
:100070001D0300001F0300002103000023030000F4
:100080002503000027030000290300002B030000C4
:100090002D0300002F030000310300003303000094
:1000A0003503000037030000390300003B03000064
:1000B0003D0300003F030000410300004303000034
:1000C0004503000047030000490300004B03000004
:1000D0004D0300004F0300005103000053030000D4
:1000E0005503000057030000000000005903000002
:1000F0005B0300005D0300005F030000610300007C
:10010000630300006503000067030000690300004B
:1001100000000000000000006B0300006D03000001
:100120006F030000710300007303000075030000FB
:1001300077030000790300007B0300007D030000CB
:1001400000000000000000000000000000000000AF
:100150007F0300008103000083030000850300008B
:10016000000000000000000000000000000000008F
:10017000000000000000000000000000000000007F
:10018000000000000000000000000000000000006F
:10019000000000000000000000000000000000005F
:1001A000000000000000000000000000000000004F
:1001B00087030000890300008B0300008D0300000B
:1001C0008F030000910300009303000095030000DB
:1001D00097030000990300009B0300009D030000AB
:1001E0009F030000A1030000A30300000000000023
:1001F00000000000A5030000A7030000A903000001
:10020000AB030000AD030000000000000000000090
:10021000AF030000B1030000B3030000B50300000A
:10022000B7030000B9030000BB030000BD030000DA
:10023000BF030000C1030000C3030000C5030000AA
:10024000C7030000C9030000CB030000CD0300007A
:10025000CF030000D1030000D3030000D50300004A
:10026000D7030000D9030000DB03000000F002F810
:1002700000F02CF80AA090E8000C82448344AAF114
:100280000107DA4501D100F021F8AFF2090EBAE812
:100290000F0013F0010F18BFFB1A43F001031847BA
:1002A0003C1900004C190000002300240025002602
:1002B000103A28BF78C1FBD8520728BF30C148BFC9
:1002C0000B6070471FB51FBD10B510BD00F05CFF7F
:1002D0001146FFF7F7FF00F04BFE00F07AFF03B482
:1002E000FFF7F2FF03BC00F07FFF00003E488047AD
:1002F0003E480047FEE7FEE7FEE7FEE7FEE7FEE7D3
:10030000FEE7FEE7FEE7FEE7FEE7FEE7FEE7FEE7C5
:10031000FEE7FEE7FEE7FEE7FEE7FEE7FEE7FEE7B5
:10032000FEE7FEE7FEE7FEE7FEE7FEE7FEE7FEE7A5
:10033000FEE7FEE7FEE7FEE7FEE7FEE7FEE7FEE795
:10034000FEE7FEE7FEE7FEE7FEE7FEE7FEE7FEE785
:10035000FEE7FEE7FEE7FEE7FEE7FEE7FEE7FEE775
:10036000FEE7FEE7FEE7FEE7FEE7FEE7FEE7FEE765
:10037000FEE7FEE7FEE7FEE7FEE7FEE7FEE7FEE755
:10038000FEE7FEE7FEE7FEE7FEE7FEE7FEE7FEE745
:10039000FEE7FEE7FEE7FEE7FEE7FEE7FEE7FEE735
:1003A000FEE7FEE7FEE7FEE7FEE7FEE7FEE7FEE725
:1003B000FEE7FEE7FEE7FEE7FEE7FEE7FEE7FEE715
:1003C000FEE7FEE7FEE7FEE7FEE7FEE7FEE7FEE705
:1003D000FEE7FEE7FEE7FEE7FEE7FEE70448054925
:1003E000034A054B70470000E50F00006D02000056
:1003F0006000002060020020600000202DE9F04F26
:1004000087B00446F74805904FF083400490606839
:1004100001F074FA8046049901F088FA07463946DB
:10042000059801F08DF98246504601F04BFA0546D9
:10043000284601F063FA5146009001F043FB4FF06B
:100440008541019001F072FA834601F0EBF8002239
:10045000E54BCDE9020100F0CFFE074600F074FF46
:1004600006464FF00009E1480068227801219140DA
:100470000843DE490860DD481038006862780121D1
:1004800091400843D9491039086000BF01E009F1E3
:100490000109B9F1050FFADB4FF0000920780828AF
:1004A00072D2DFE800F00486F0EFEEEDECEBD0481E
:1004B000006840F00300CE490860CE48006820F094
:1004C000FF0040F01100CB490860CA4810380068AE
:1004D00040F00300C74910390860C648001F006893
:1004E00020F00300C349091F0860C348006B20F0D7
:1004F0000100C1490863084645628662A07828BBAE
:10050000E07830B101280BD0022810D003281CD18C
:1005100014E0B948C06A40F01000B749C86214E05E
:10052000B548C06A40F03000B349C8620DE0B24837
:10053000C06A40F05000B049C86206E0AE48C06AE8
:1005400040F07000AC49C86200BF26E0E07830B1EE
:1005500001280BD0022810D003281DD115E0A64891
:10056000C06A40F01800A449C86215E0A248C06AF9
:1005700040F03800A049C8620EE09F48C06A40F0D1
:1005800058009D49C86207E0F7E39B48C06A40F005
:1005900078009949C86200BF00BF9748006B40F4DB
:1005A0004070954908630846006B40F001000863FD
:1005B000E5E3607801281ED19048006840F0030010
:1005C0008E4908608E48006820F0FF0040F011005E
:1005D0008B4908608A481038006840F00300884959
:1005E000103908608648001F006820F00300844925
:1005F000091F086020E0607802281DD1814800684A
:1006000040F003007F4908607F48006820F47F00C5
:1006100000F588107C4908607B481038006840F07D
:1006200003007949103908607748001F006820F0FE
:1006300003007549091F08607448006B20F0010031
:1006400072490863084645628662A07858BBE07824
:1006500030B101280BD0022816D0032822D11AE08D
:100660006A48C06A40F010006849C8621AE06748EA
:10067000C06A40F030006549C86213E0FDE264E200
:10068000E2E160E1DEE040E06048C06A40F0500036
:100690005E49C86206E05D48C06A40F070005B4990
:1006A000C86200BF25E0E07830B101280BD00228F5
:1006B00010D003281CD114E05448C06A40F0180040
:1006C0005249C86214E05148C06A40F038004F49AE
:1006D000C8620DE04D48C06A40F058004B49C862FE
:1006E00006E04A48C06A40F078004849C86200BF46
:1006F00000BF4648006B40F4407044490863084618
:10070000006B40F00100086339E34148006840F0A5
:10071000C0003F4908603F48006820F07F4040F03B
:1007200088503C4908603B481038006840F0C000E1
:100730003849103908603748001F006820F0C000B1
:100740003449091F08603448006B20F00100324929
:100750000863084645628662A07828BBE07830B11D
:1007600001280BD0022810D003281CD114E02A48FD
:10077000C06A40F010002849C86214E02648C06AE8
:1007800040F030002449C8620DE02348C06A40F0C0
:1007900050002149C86206E01F48C06A40F070005E
:1007A0001D49C86200BF41E0E07830B101280BD09C
:1007B000022810D0032838D130E01748C06A40F032
:1007C00018001549C86230E01348C06A40F038008C
:1007D0001149C86229E01048C06A40F058000E492B
:1007E000C86222E00024744B0000E03F18E60F408E
:1007F000204400402C45004000C0004020540040F0
:100800002C550040206400402C65004000D0004082
:10081000207400402C75004000E00040F748C06A9A
:1008200040F07800F549C86200BF00BFF348006B94
:1008300040F44070F14908630846006B40F0010045
:1008400008639CE2EE48006840F0C000EC49086094
:10085000EC48006820F07F4040F08850E94908608B
:10086000E8481038006840F0C000E64910390860D8
:10087000E448001F006820F0C000E249091F08603A
:10088000E148006B20F00100DF490863084645623B
:100890008662A07828BBE07830B101280BD002280E
:1008A00010D003281CD114E0D748C06A40F01000D3
:1008B000D549C86214E0D448C06A40F03000D2493B
:1008C000C8620DE0D048C06A40F05000CE49C8620E
:1008D00006E0CD48C06A40F07000CB49C86200BF56
:1008E00025E0E07830B101280BD0022810D0032891
:1008F0001CD114E0C448C06A40F01800C249C86264
:1009000014E0C148C06A40F03800BF49C8620DE039
:10091000BD48C06A40F05800BB49C86206E0BA480A
:10092000C06A40F07800B849C86200BF00BFB6484E
:10093000006B40F44070B44908630846006B40F017
:10094000010008631BE2AE48006840F03000AC498B
:100950000860AC48006820F47F0040F48810A94982
:100960000860A8481038006840F03000A5491039E8
:100970000860A448001F006820F03000A149091F4A
:100980000860A248006B20F00100A04908630846F7
:1009900045628662A07828BBE07830B101280BD090
:1009A000022810D003281CD114E09848C06A40F0F7
:1009B00010009649C86214E09448C06A40F03000C4
:1009C0009249C8620DE09148C06A40F050008F49DA
:1009D000C86206E08D48C06A40F070008B49C8626A
:1009E00000BF25E0E07830B101280BD0022810D0FC
:1009F00003281CD114E08548C06A40F018008349E0
:100A0000C86214E08148C06A40F038007F49C8627B
:100A10000DE07E48C06A40F058007C49C86206E09C
:100A20007A48C06A40F078007849C86200BF00BFC9
:100A30007648006B40F44070744908630846006BC8
:100A400040F0010008639AE17148006840F030000E
:100A50006F4908606F48006820F47F0000F5881037
:100A60006C4908606B481038006840F030006949F4
:100A7000103908606748001F006820F030006549A1
:100A8000091F08606448006B20F001006249086398
:100A9000084645628662A07828BBE07830B101281C
:100AA0000BD0022810D003281CD114E05A48C06A89
:100AB00040F010005849C86214E05748C06A40F03E
:100AC00030005549C8620DE05348C06A40F05000FC
:100AD0005149C86206E05048C06A40F070004E4973
:100AE000C86200BF25E0E07830B101280BD00228B1
:100AF00010D003281CD114E04748C06A40F0180009
:100B00004549C86214E04448C06A40F03800424990
:100B1000C8620DE04048C06A40F058003E49C862D3
:100B200006E03D48C06A40F078003B49C86200BF1B
:100B300000BF3948006B40F44070374908630846ED
:100B4000006B40F00100086319E13448006840F090
:100B50003000324908603248006820F47F0000F518
:100B600088102F4908602E481038006840F0300087
:100B70002B49103908602A48001F006820F0300017
:100B80002749091F08602748006B20F0010025490C
:100B90000863084645628662A07828BBE07830B1D9
:100BA00001280BD0022810D003281CD114E01D48C6
:100BB000C06A40F010001B49C86214E01948C06ABE
:100BC00040F030001749C8620DE01648C06A40F096
:100BD00050001449C86206E01248C06A40F0700034
:100BE0001049C86200BF3CE0E078E8B1012822D09B
:100BF000022827D0032833D12BE0000000E000407A
:100C0000206400402C65004000F0004000000140DE
:100C1000204402402C450240001001402074004056
:100C20002C75004000200140C748C06A40F0180001
:100C3000C549C86214E0C448C06A40F03800C249DF
:100C4000C8620DE0C048C06A40F05800BE49C862A2
:100C500006E0BD48C06A40F07800BB49C86200BFEA
:100C600000BFB948006B40F44070B74908630846BC
:100C7000006B40F00100086381E0B448006840F078
:100C80000300B2490860B248006820F0FF0040F05D
:100C90001100AF490860AE481038006840F003000A
:100CA000AB4910390860AA48001F006820F03000E6
:100CB000A749091F0860A74845628662006B20F0BB
:100CC0000100A4490863A07828BBE07830B101286E
:100CD0000BD0022810D003281CD114E09D48C06A14
:100CE00040F010009B49C86214E09A48C06A40F086
:100CF00030009849C8620DE09648C06A40F0500044
:100D00009449C86206E09348C06A40F07000914977
:100D1000C86200BF25E0E07830B101280BD002287E
:100D200010D003281CD114E08A48C06A40F0180093
:100D30008849C86214E08748C06A40F03800854995
:100D4000C8620DE08348C06A40F058008149C8621B
:100D500006E08048C06A40F078007E49C86200BF63
:100D600000BF7C48006B40F440707A490863084635
:100D7000006B40F00100086301E0FFE700BF00BF27
:100D80004FF0000901E009F10109B9F10A0FFADB9E
:100D900007B0BDE8F08F0146087808285BD2DFE88D
:100DA00000F0040E1828323C465000BF6A488069A3
:100DB00010F0100FFAD168480068C0B2704700BF49
:100DC0006648806910F0100FFAD164480068C0B21C
:100DD000F4E700BF6248806900F01000102801D0DD
:100DE000012000E000200028F4D15D480068C0B276
:100DF000E4E700BF5B48806910F0100FFAD1594852
:100E00000068C0B2DAE700BF5748806910F0100FE1
:100E1000FAD155480068C0B2D0E700BF5348806996
:100E200010F0100FFAD151480068C0B2C6E700BFF9
:100E30004548806910F0100FFAD143480068C0B2ED
:100E4000BCE700BF4348806910F0100FFAD1414859
:100E50000068C0B2B2E700BF00BFAFE70278082A5F
:100E60004DD2DFE802F0040D161F28313A4300BFCF
:100E7000394A926912F0200FFAD1374A11603EE0E8
:100E800000BF364A926912F0200FFAD1334A11603E
:100E900035E000BF324A926912F0200FFAD1304A91
:100EA00011602CE000BF2F4A926912F0200FFAD196
:100EB0002C4A116023E000BF2B4A926912F0200FE8
:100EC000FAD1294A11601AE000BF284A926912F04B
:100ED000200FFAD1254A116011E000BF1A4A926929
:100EE00012F0200FFAD1184A116008E000BF194A29
:100EF000926912F0200FFAD1164A116000BF00BFAC
:100F00007047F0B507460C46002600BF3846FFF78D
:100F100042FF0546A555701CC6B2521E002AF5D1E7
:100F20000020A0550026F0BD70B506460C460025F1
:100F300005E0615D3046FFF791FF681CC5B2605D5A
:100F40000028F6D1002570BD002001402044024059
:100F50002C4502400030014000C0004000D000405D
:100F600000E0004000F0004000000140001001409F
:100F700088B000240020069007901B4903C9CDE9E2
:100F800004011949083103C9CDE90201164910319C
:100F900003C9CDE9000100F076F8012000F0CEF899
:100FA00012A000F0BDF804A8FFF728FA02A8FFF786
:100FB00025FA6846FFF722FA022000F0BFF80DA0DC
:100FC00000F0AEF80DE06846FFF7E5FE0446214666
:100FD00002A8FFF743FF032000F0B0F8204600F01E
:100FE0003AF8F0E7FFF7C4FFC41B0000662030307A
:100FF000000000006620303100000000002105E004
:10100000002200E0521C032AFCDB491C8142F7DB72
:10101000704710B504460420554908604FF4FA7033
:10102000FFF7ECFF5348C0F8FC434FF4FA70FFF7AA
:10103000E5FF00204E4908604FF4FA70FFF7DEFF2D
:10104000042C04DA4FF4FA60FFF7D8FF02E02820FE
:10105000FFF7D4FF10BD10B50446052044490860D1
:101060004FF4FA70FFF7CAFF4248C0F8FC434FF450
:10107000FA70FFF7C3FF00203D4908604FF4FA7093
:10108000FFF7BCFF10BD00B53B48006840F0120000
:1010900039490860394800680020384908603448F8
:1010A0002430006800203249243108603048001D97
:1010B000006840F0FF002E49091D08602F480C38D9
:1010C000006840F007002D490C3908602C48006882
:1010D00000202B4908602B4800680020294908603F
:1010E00028482038006840F0FF0026492039086071
:1010F00023480C38006840F0FF0021490C39086093
:101100003820FFF786FF0220FFF783FF0620FFF756
:1011100080FF0F20FFF77DFF0120FFF77AFF00BD62
:1011200030B50546002404E0285DFFF794FF601CFD
:10113000C4B2285D08B1102CF6DB30BD10B50446F2
:10114000012C03D18020FFF764FF10E0022C03D1B3
:10115000C020FFF75EFF0AE0032C03D19020FFF7C9
:1011600058FF04E0042C02D1D020FFF752FF10BD3D
:10117000FC4302400050004008E60F402845024072
:101180002855004020540040754600F029F8AE462E
:1011900005006946534620F00700854618B020B583
:1011A000FFF71CF9BDE820404FF000064FF00007A4
:1011B0004FF000084FF0000B21F00701AC46ACE8FF
:1011C000C009ACE8C009ACE8C009ACE8C0098D466C
:1011D00070470446AFF300802046FFF780F8000018
:1011E000004870470000002001491820ABBEFEE710
:1011F000260002007047000010B591EA030F48BFB7
:1012000083F0004300F12C81841A71EB030C05D2AA
:10121000121943EB0C03001B61EB0C01DFF824E116
:101220004FEA1154A4EB135C1EEA430F18BF9EEA69
:10123000445F73D023EA0E03DCF1200E21EA04514F
:1012400043F4801332D322FA0CFE10EB0E0023FA83
:101250000CFE41EB0E01CCF1200E03FA0EFE10EB5A
:101260000E0051F10001B1F5801FCCF1200E32D2F9
:1012700001EB045112FA0EF2BDE8104058BF70475E
:10128000401C38BF5FEA420218BF7047002814BFF5
:1012900020F0010041F100014FEA410313F5001F66
:1012A00038BF7047A1F1C04100F0CBB8012A43EB31
:1012B0000302ACF1200CDCF11F0E32BF4FF0000E28
:1012C00023FA0CF310EB030041EB0451B4EB115F74
:1012D000D0D0A1EB045101F5801149085FEA30003C
:1012E00001EB04510ED350F1000038BF12FA0EFE8C
:1012F00008D1BDE81040C9E7401C38BF5FEA420290
:10130000CAD1C3E7BDE810404FEA410313F5001FFF
:1013100038BF7047A1F1C04100F093B89EEA445F26
:1013200008D011EA5E0FBDE8104004BF01F0004193
:1013300000207047BDE8104070B500F034F800BFE1
:1013400064FBBE3E0000E0FF4FEA41034FEA535307
:10135000A3F58063D3F11E03C8BFD3F1210C0CDDCC
:101360004FF0004242EAC12242EA505232FA03FCF4
:101370008CEAE17CACEBE1707047102BC4BF00201D
:10138000704703F5787CBCF1FF3F04D06FF000425A
:1013900082EA2100704770B500F005F84992248078
:1013A00000207047F2E70EF1020E2EF0030E5EF8F9
:1013B000046B364205D4012A43EB030515F5001FE3
:1013C00012D8012841EB010C1CF5001F0CD80ED1DE
:1013D0004FEAD17C15F5001F0CEB4C0C0CF1020C04
:1013E00008BF4CEBD37C04E04FF0080C01E04FEA5F
:1013F000D37C0CEB4C0526FA05F606F00706B6F191
:10140000040C06D20EEB860CBDE870404CF0010CCB
:101410006047DFE80CF0090B02024FF000414FF08B
:101420000000A1F5002170BD19461046012851EBBE
:10143000010418BFD4F5001484BF002001F000415E
:1014400070BD0808A0F500114FEA31017047000097
:1014500010B591EA030F48BF83F000433FF5D4AEC7
:10146000841A71EB030C07D212198CF0004C43EB79
:101470000C03001B61EB0C01DFF8A4E14FEA1154EF
:10148000A4EB135C1EEA430F18BF9EEA445F00F012
:10149000B08023EA6E03524221EA0451C3EB6E038B
:1014A00038BF5B1EDCF1200E25D322FA0CFE10EBB8
:1014B0000E0043FA0CFE41EB0E01CCF1200E03FAB4
:1014C0000EFE10EB0E0051F10001CCF1200E29D4DC
:1014D00012FA0EF201EB0451BDE8104058BF7047FC
:1014E000401C1CBFB2F1004F704700280CBF491CC4
:1014F00020F00100704712EB020E43EB030218BF0D
:101500004FF0010E4EEA4202ACF1200CDCF11E0E4F
:1015100054D943FA0CFE10EB0E0051F1FF31CCF11F
:101520001E0ED5D50EF1010E12FA0EFE404141EB12
:10153000010101EB445C5FEA5C5C10D910EBDE70EA
:1015400001EB045138BFBEF1004FBDE8104018BF99
:10155000704700280CBF491C20F00100704730D2B2
:101560004FEAD42C11F5001124F400641BD0B1FA19
:1015700081F20B3AA41AA41ED2F12003914030FA52
:1015800003F31943904001EBCC71002C01EB0451A3
:10159000BDE81040A8BF704701F1C0414FF0000006
:1015A00001F000417047B0FA80F310FA03F100D166
:1015B00010BDE41A173C4805C90AE4E701EB0451E1
:1015C00010BD491001EB0451BDE810404FEA300056
:1015D00002E04FF0000170474A0008BF0042F8D017
:1015E000B2F5001F28BF704701F000414FF0000026
:1015F00070479EEA445F07D011EA5E0FBDE81040D5
:1016000004BF002100207047BDE8104070B5FFF70F
:10161000CAFE00BF40DFF63E83F00041104670472F
:101620000000E0FF43004FEAD30C4FEA3C0C43407C
:101630001FBF40070CF1605113F0FE4F70471CF0C4
:10164000006F03D100200CF0004170470CF0004304
:1016500043EA507010B540EACC0000F0E8F900BF52
:10166000000000924FEA0001FFF7EBBE4FF000418F
:101670004FF00000A1F500217047000090EA010F33
:1016800048BF81F0004100F12E82421A3CBF801A0F
:1016900089184FEAD0524FF07F4C1CEA410FA2EB61
:1016A000D15318BF9CEA026F00F03B804FF0004C12
:1016B0004CEA00204CEA012121FA03FC10EB0C0C4F
:1016C0001ED202F1FF325FEA1C2040EBC25038BF4D
:1016D00070471CF07F0F4FEA400C18BFBCF17F4FE2
:1016E00038BF7047C3F12003994008BF20F00100C4
:1016F000BCF17F4F38BF7047A0F1C04000F0DDB9AA
:101700004FEA3C00000A40EBC25028BF1CF0FF0F1C
:101710004FEA400CE6D018BFBCF17F4F38BF70478E
:10172000EAE79CEA026F05D010EA5C0F08BF00F000
:101730000040704710B500F07AF900BF64FBBE3E70
:101740004FF47F0C1CEAD0121EBF1CEAD11392EAA0
:101750000C0F93EA0C0F00F0858090EA010F48BF50
:1017600042F4807240F4000C41F400002CF07F4100
:1017700020F07F4000B58142A2EB03020FF2081C6B
:10178000ACEB504EC0F100009EF800E04FEA4E0E68
:1017900000FB0EFC38BF49004FEA2C1C02F5FA0290
:1017A0000CFB0EF34FEACE1E4FEA112C4FEAC1217B
:1017B0000EEB635E42EB22420EFB0CFC4FEA1C5325
:1017C00000FB03114FEA112C4FEA01310EFB0CFC18
:1017D0004FEADC4C00FB0C11C14228BF09184CEB4E
:1017E00003335DF804EB10EB410143EBC250B2F55B
:1017F0007C0F38BF704729D512F0F00F1CBF00F1E5
:10180000C04000F000407047008182838485868755
:1018100088898B8C8D8E8F919293959697999A9CAF
:101820009D9FA0A2A3A5A7A8AAACAEB0B2B3B5B71E
:10183000B9BCBEC0C2C5C7C9CCCED1D4D7D9DCDFF4
:10184000E2E6E9ECF0F3F7FAFE0000004FEA400CA4
:101850000CF1807CBCF17E4F28BF7047B0F1C040D6
:1018600000F02BB990EA010F0CEAD11348BF42F403
:101870008072624538BF634507D213F47F0F16D0DC
:1018800080EA010000F00040704710B500F0CFF88A
:10189000097EFC3E00F005B880EA010000F000403F
:1018A000704780EA010000F0004000F006B912F431
:1018B0007F0F04BF0248704780EA010000F0FDB8C6
:1018C0000000C07F41000B0ED3F19E0208D950F4F6
:1018D00000034FEA032323FA02F048BF4042704757
:1018E00010B500F0A4F800BF499224800020704792
:1018F0006FF0004282EA20007047000010F00041C3
:1019000048BF4042B0FA80F310FA03F2C3F19D03DE
:101910000BD051EAC35101EB1220530638BF704778
:1019200000F1010008BF20F0010070474FF47F0C68
:101930001CEAD0121EBF1CEAD11392EA0C0F93EAE4
:101940000C0F00F0478090EA010F48BF42F480720C
:101950004FF0004C4CEA00204CEA012102EB03025C
:10196000A0FB0113A2F50002002918BF43F00103F8
:101970005B0028BF4FEA330342EB22425FEA132C9D
:101980004CEBC2502EBFBCEB436FB2F57C0F7047DF
:101990004FEA036CBCF1004F08BF20F00100B2F524
:1019A0007C0F38BF70470BD582F0FF0212F5803FE5
:1019B000C8BF704700F1C040D8BF00F0004070477A
:1019C00000F5000C5FEA4C0C48BF7047B0F1C04016
:1019D00000F073B890EA010F0CEAD11348BF42F44B
:1019E0008072624538BF634504D280EA010000F08E
:1019F0000040704710B500F01AF800BF8900013EA2
:101A000000F007B800F009B85FEA410C5FEA1C6C0F
:101A100008D080EA010000F050B85FEA400C5FEAAD
:101A20001C6CF6D14FF00040A0F5800070470EF11D
:101A3000020E2EF0030E5EF8044B244204D44FEA4B
:101A40004102B2F17F4F11D84FEA4003B3F17F4F0B
:101A50000CD80ED14FEAD07CB2F17F4F0CEB4C0C7E
:101A60000CF1020C08BF4CEBD17C04E04FF0080CE9
:101A700001E04FEAD17C0CEB4C0324FA03F404F0B0
:101A80000704B4F1040C06D20EEB840CBDE8104040
:101A90004CF0010C6047DFE80CF0070802024FF041
:101AA0000040A0F5800010BD0846420018BFD2F1EA
:101AB000807288BF00F0004010BDFF2141EAD05085
:101AC000C005704780F0004090EA010F7FF5DDAD62
:101AD00081F0004100F007B890EA010F48BF81F0A3
:101AE00000413FF5D2AD421A04D882F00042A0EB8B
:101AF000020011444FEAD0524FF07F4C1CEA410FD4
:101B0000A2EBD15318BF9CEA026F4AD04FF0004CB1
:101B10004CEA00204CEA012121FA03FCB0EB0C0C4A
:101B20000FD412F0FE0F36D05FEA4C001DD5001224
:101B300040EBC25038BF70471CF03F0F18BF7047D2
:101B40000BE0A2F101025FEA1C2040EBC25038BF5B
:101B500070471CF07F0F18BF7047C3F120039940F6
:101B600014BF401E20F00100704780084FEA122386
:101B700008BF7047B0FA80FCA2EB0C02CCF1280C35
:101B800060FA0CF093EA122F04BF00EBC2507047CA
:101B90004FEAC3707047130A5FEADC1008BF704752
:101BA000F6E79CEA026F04D010EA5C0F08BF002041
:101BB000704710B5FFF73BFF40DFF63E81F0004075
:101BC00070470000000000038025000005040003AA
:101BD000802500000402000380250000EC1B0000AB
:0C1BE0000000002060020000A8020000CD
:04000005000002ED08
:00000001FF
