:020000040000FA
:1000000060020020F1020000F9020000FB02000083
:10001000FD020000FF0200000103000000000000DC
:1000200000000000000000000000000003030000CA
:1000300005030000000000000703000009030000A2
:100040000B0300000D0300000F030000110300006C
:10005000130300001503000017030000190300003C
:100060001B0300001D0300001F030000210300000C
:1000700023030000250300002703000029030000DC
:100080002B0300002D0300002F03000031030000AC
:10009000330300003503000037030000390300007C
:1000A0003B0300003D0300003F030000410300004C
:1000B000430300004503000047030000490300001C
:1000C0004B0300004D0300004F03000051030000EC
:1000D00053030000550300005703000059030000BC
:1000E0005B0300005D030000000000005F030000F0
:1000F0006103000063030000650300006703000064
:10010000690300006B0300006D0300006F03000033
:1001100000000000000000007103000073030000F5
:100120007503000077030000790300007B030000E3
:100130007D0300007F0300008103000083030000B3
:1001400000000000000000000000000000000000AF
:100150008503000087030000890300008B03000073
:10016000000000000000000000000000000000008F
:10017000000000000000000000000000000000007F
:10018000000000000000000000000000000000006F
:10019000000000000000000000000000000000005F
:1001A000000000000000000000000000000000004F
:1001B0008D0300008F0300009103000093030000F3
:1001C0009503000097030000990300009B030000C3
:1001D0009D0300009F030000A1030000A303000093
:1001E000A5030000A7030000A90300000000000011
:1001F00000000000AB030000AD030000AF030000EF
:10020000B1030000B3030000000000000000000084
:10021000B5030000B7030000B9030000BB030000F2
:10022000BD030000BF030000C1030000C3030000C2
:10023000C5030000C7030000C9030000CB03000092
:10024000CD030000CF030000D1030000D303000062
:10025000D5030000D7030000D9030000DB03000032
:10026000DD030000DF030000E103000000F002F8FE
:1002700000F02EF80AA090E8000C82448344AAF112
:100280000107DA4501D100F023F8AFF2090EBAE810
:100290000F0013F0010F18BFFB1A43F001031847BA
:1002A0009C020000AC020000002300240025002670
:1002B000103A28BF78C1FBD8520728BF30C148BFC9
:1002C0000B6070471FB500F034F91FBD10B510BDAD
:1002D00000F0F9F81146FFF7F5FF00F0E8F800F03C
:1002E00017F903B4FFF7F2FF03BC00F01BF900009D
:1002F0003F4880473F480047FEE7FEE7FEE7FEE74E
:10030000FEE7FEE7FEE7FEE7FEE7FEE7FEE7FEE7C5
:10031000FEE7FEE7FEE7FEE7FEE7FEE7FEE7FEE7B5
:10032000FEE7FEE7FEE7FEE7FEE7FEE7FEE7FEE7A5
:10033000FEE7FEE7FEE7FEE7FEE7FEE7FEE7FEE795
:10034000FEE7FEE7FEE7FEE7FEE7FEE7FEE7FEE785
:10035000FEE7FEE7FEE7FEE7FEE7FEE7FEE7FEE775
:10036000FEE7FEE7FEE7FEE7FEE7FEE7FEE7FEE765
:10037000FEE7FEE7FEE7FEE7FEE7FEE7FEE7FEE755
:10038000FEE7FEE7FEE7FEE7FEE7FEE7FEE7FEE745
:10039000FEE7FEE7FEE7FEE7FEE7FEE7FEE7FEE735
:1003A000FEE7FEE7FEE7FEE7FEE7FEE7FEE7FEE725
:1003B000FEE7FEE7FEE7FEE7FEE7FEE7FEE7FEE715
:1003C000FEE7FEE7FEE7FEE7FEE7FEE7FEE7FEE705
:1003D000FEE7FEE7FEE7FEE7FEE7FEE7FEE7FEE7F5
:1003E000FEE7000004480549034A054B704700003A
:1003F000AD0400006D0200006000002060020020DB
:10040000600000202648006840F00400244908608D
:1004100023481038006840F008002149103908606E
:100420002048006840F088501E4908601D48FC3094
:10043000006840F0C0001B49FC31086019482038B2
:10044000006840F0C0001749203908601648006B6A
:1004500040F20131084314490863704700BF124855
:10046000806910F0100FFAD10F480068C0B27047D1
:1004700008B5FFF7F3FF00906B46002102E0585CDF
:100480001060491C0429FADB104608BD00BF06496C
:10049000896911F0200FFAD1034908607047000004
:1004A00018E60F402074004000E00040704710B58F
:1004B0000024FFF7A7FFFFF7D1FF0446002010BD7F
:1004C000704770477047754600F028F8AE46050043
:1004D0006946534620F00700854618B020B5FFF75F
:1004E00081FFBDE820404FF000064FF000074FF0BD
:1004F00000084FF0000B21F00701AC46ACE8C00942
:10050000ACE8C009ACE8C009ACE8C0098D4670474A
:100510000446AFF300802046FFF7E3FE0048704733
:100520000000002001491820ABBEFEE726000200B3
:1005300070474FF04070E1EE100A70474C05000024
:0C0540000000002060020000A802000083
:04000005000002F104
:00000001FF
